{
  "_format": "hh-sol-artifact-1",
  "contractName": "SimpleSwap",
  "sourceName": "contracts/SimpleSwap.sol",
  "abi": [
    {
      "inputs": [
        {
          "internalType": "address",
          "name": "_fetToken",
          "type": "address"
        }
      ],
      "stateMutability": "nonpayable",
      "type": "constructor"
    },
    {
      "inputs": [],
      "name": "ReentrancyGuardReentrantCall",
      "type": "error"
    },
    {
      "anonymous": false,
      "inputs": [
        {
          "indexed": true,
          "internalType": "address",
          "name": "user",
          "type": "address"
        },
        {
          "indexed": false,
          "internalType": "uint256",
          "name": "ethAmount",
          "type": "uint256"
        },
        {
          "indexed": false,
          "internalType": "uint256",
          "name": "fetAmount",
          "type": "uint256"
        },
        {
          "indexed": false,
          "internalType": "uint256",
          "name": "timestamp",
          "type": "uint256"
        }
      ],
      "name": "SwapExecuted",
      "type": "event"
    },
    {
      "anonymous": false,
      "inputs": [
        {
          "indexed": true,
          "internalType": "address",
          "name": "from",
          "type": "address"
        },
        {
          "indexed": false,
          "internalType": "uint256",
          "name": "amount",
          "type": "uint256"
        }
      ],
      "name": "TokensReceived",
      "type": "event"
    },
    {
      "inputs": [],
      "name": "DECIMALS",
      "outputs": [
        {
          "internalType": "uint256",
          "name": "",
          "type": "uint256"
        }
      ],
      "stateMutability": "view",
      "type": "function"
    },
    {
      "inputs": [],
      "name": "EXCHANGE_RATE",
      "outputs": [
        {
          "internalType": "uint256",
          "name": "",
          "type": "uint256"
        }
      ],
      "stateMutability": "view",
      "type": "function"
    },
    {
      "inputs": [],
      "name": "FETToken",
      "outputs": [
        {
          "internalType": "contract ERC20",
          "name": "",
          "type": "address"
        }
      ],
      "stateMutability": "view",
      "type": "function"
    },
    {
      "inputs": [],
      "name": "getETHBalance",
      "outputs": [
        {
          "internalType": "uint256",
          "name": "",
          "type": "uint256"
        }
      ],
      "stateMutability": "view",
      "type": "function"
    },
    {
      "inputs": [
        {
          "internalType": "uint256",
          "name": "ethAmount",
          "type": "uint256"
        }
      ],
      "name": "getFETAmount",
      "outputs": [
        {
          "internalType": "uint256",
          "name": "",
          "type": "uint256"
        }
      ],
      "stateMutability": "pure",
      "type": "function"
    },
    {
      "inputs": [],
      "name": "getFETBalance",
      "outputs": [
        {
          "internalType": "uint256",
          "name": "",
          "type": "uint256"
        }
      ],
      "stateMutability": "view",
      "type": "function"
    },
    {
      "inputs": [],
      "name": "owner",
      "outputs": [
        {
          "internalType": "address",
          "name": "",
          "type": "address"
        }
      ],
      "stateMutability": "view",
      "type": "function"
    },
    {
      "inputs": [],
      "name": "swapETHforFET",
      "outputs": [],
      "stateMutability": "payable",
      "type": "function"
    },
    {
      "inputs": [
        {
          "internalType": "address",
          "name": "newOwner",
          "type": "address"
        }
      ],
      "name": "transferOwnership",
      "outputs": [],
      "stateMutability": "nonpayable",
      "type": "function"
    },
    {
      "inputs": [],
      "name": "withdrawETH",
      "outputs": [],
      "stateMutability": "nonpayable",
      "type": "function"
    },
    {
      "stateMutability": "payable",
      "type": "receive"
    }
  ],
  "bytecode": "0x608060405234801561001057600080fd5b506040516108ef3803806108ef83398101604081905261002f91610062565b6001600081905580546001600160a01b039092166001600160a01b03199283161790556002805490911633179055610092565b60006020828403121561007457600080fd5b81516001600160a01b038116811461008b57600080fd5b9392505050565b61084e806100a16000396000f3fe6080604052600436106100955760003560e01c80638da5cb5b116100595780638da5cb5b14610151578063b578e04314610189578063bf27a6031461019e578063e086e5ec146101be578063f2fde38b146101d357600080fd5b806314a8bd0d146100d657806322093183146100ff5780632e0f2625146101095780636d7dd1e41461011e5780636e9472981461013e57600080fd5b366100d15760405134815233907f5a0ebf9442637ca6e817894481a6de0c29715a73efc9e02bb7ef4ed52843362d9060200160405180910390a2005b600080fd5b3480156100e257600080fd5b506100ec6103e881565b6040519081526020015b60405180910390f35b6101076101f3565b005b34801561011557600080fd5b506100ec601281565b34801561012a57600080fd5b506100ec610139366004610655565b610456565b34801561014a57600080fd5b50476100ec565b34801561015d57600080fd5b50600254610171906001600160a01b031681565b6040516001600160a01b0390911681526020016100f6565b34801561019557600080fd5b506100ec610496565b3480156101aa57600080fd5b50600154610171906001600160a01b031681565b3480156101ca57600080fd5b50610107610508565b3480156101df57600080fd5b506101076101ee36600461066e565b61057d565b6101fb61062b565b600034116102405760405162461bcd60e51b815260206004820152600d60248201526c09aeae6e840e6cadcc8408aa89609b1b60448201526064015b60405180910390fd5b6001546001600160a01b031661028c5760405162461bcd60e51b8152602060048201526011602482015270119155081d1bdad95b881b9bdd081cd95d607a1b6044820152606401610237565b600061029a6012600a610798565b6102a66012600a610798565b6102b26103e8346107a4565b6102bc91906107a4565b6102c691906107bb565b6001546040516370a0823160e01b815230600482015291925082916001600160a01b03909116906370a0823190602401602060405180830381865afa158015610313573d6000803e3d6000fd5b505050506040513d601f19601f8201168201806040525081019061033791906107dd565b10156103915760405162461bcd60e51b815260206004820152602360248201527f496e73756666696369656e742046455420746f6b656e7320696e20636f6e74726044820152621858dd60ea1b6064820152608401610237565b60015460405163a9059cbb60e01b8152336004820152602481018390526001600160a01b039091169063a9059cbb906044016020604051808303816000875af11580156103e2573d6000803e3d6000fd5b505050506040513d601f19601f8201168201806040525081019061040691906107f6565b5060408051348152602081018390524281830152905133917fe3a277e9dc82afe4d40533f81d7299e0d9ca6d4ed93e2bbe5d94a93eaf0a5b5f919081900360600190a2506104546001600055565b565b60006104646012600a610798565b6104706012600a610798565b61047c6103e8856107a4565b61048691906107a4565b61049091906107bb565b92915050565b6001546040516370a0823160e01b81523060048201526000916001600160a01b0316906370a0823190602401602060405180830381865afa1580156104df573d6000803e3d6000fd5b505050506040513d601f19601f8201168201806040525081019061050391906107dd565b905090565b6002546001600160a01b0316331461054e5760405162461bcd60e51b81526020600482015260096024820152682737ba1037bbb732b960b91b6044820152606401610237565b60405133904780156108fc02916000818181858888f1935050505015801561057a573d6000803e3d6000fd5b50565b6002546001600160a01b031633146105c35760405162461bcd60e51b81526020600482015260096024820152682737ba1037bbb732b960b91b6044820152606401610237565b6001600160a01b0381166106095760405162461bcd60e51b815260206004820152600d60248201526c24b73b30b634b21037bbb732b960991b6044820152606401610237565b600280546001600160a01b0319166001600160a01b0392909216919091179055565b60026000540361064e57604051633ee5aeb560e01b815260040160405180910390fd5b6002600055565b60006020828403121561066757600080fd5b5035919050565b60006020828403121561068057600080fd5b81356001600160a01b038116811461069757600080fd5b9392505050565b634e487b7160e01b600052601160045260246000fd5b600181815b808511156106ef5781600019048211156106d5576106d561069e565b808516156106e257918102915b93841c93908002906106b9565b509250929050565b60008261070657506001610490565b8161071357506000610490565b816001811461072957600281146107335761074f565b6001915050610490565b60ff8411156107445761074461069e565b50506001821b610490565b5060208310610133831016604e8410600b8410161715610772575081810a610490565b61077c83836106b4565b80600019048211156107905761079061069e565b029392505050565b600061069783836106f7565b80820281158282048414176104905761049061069e565b6000826107d857634e487b7160e01b600052601260045260246000fd5b500490565b6000602082840312156107ef57600080fd5b5051919050565b60006020828403121561080857600080fd5b8151801515811461069757600080fdfea2646970667358221220ca2131720e96441bedfa31a21eff6f25fc15eee2530aa323227f2ebef643b94464736f6c63430008140033",
  "linkReferences": {},
  "deployedLinkReferences": {}
}